:020000040800F2
:100000000007002045010008252000086D150008A4
:1000100021200008F10B0008B92A000800000000A8
:100020000000000000000000000000008126000821
:10003000F70B000800000000992400082929000897
:100040005F0100085F0100085F0100085F01000810
:100050005F0100085F0100085F0100085F01000800
:100060005F0100085F0100085F0100085F010008F0
:100070005F0100085F0100085F0100085F010008E0
:100080005F0100085F0100085F0100085F010008D0
:100090005F0100085F0100085F0100085F010008C0
:1000A0005F0100085F0100085F0100085F010008B0
:1000B0005F0100085F0100085F0100085F010008A0
:1000C0005F0100085F0100085F0100085F01000890
:1000D0005F0100085D2A00085F2A00085F01000830
:1000E0005F0100085F0100085F0100085F01000870
:1000F0005F0100085F0100085F0100085F01000860
:100100005F0100085F0100085F0100085F0100084F
:100110005F0100085F010008B1290008B329000849
:100120005F0100085F0100085F0100085F0100082F
:10013000DFF80CD000F03EFC004800471D2F0008FF
:10014000000700200648804706480047FEE7FEE714
:10015000FEE7FEE7FEE7FEE7FEE7FEE7FEE7FEE777
:10016000512900083101000840EA01039B0703D030
:1001700009E008C9121F08C0042AFAD203E011F8E6
:10018000013B00F8013B521EF9D27047F0B480EAFF
:100190000102D40F4200B2EB410F02D202460846E0
:1001A00011464A0042D0C30DDDB2C1F3C752AD1AA9
:1001B000202D35DAC1F3160141F4000204B1524298
:1001C000C5F1200602FA06F12A411044B3EBD05FD4
:1001D00023D0C4B1012DA0EBC35009DCF0BC4FF01B
:1001E000004202EAC352DBB200F5000000F068BA38
:1001F000400000F1807000EBC350A0F1807040EA35
:10020000D170490009E0490841EAC071A0EBC35030
:1002100000F50000400800EBC350F0BC00F047BA06
:100220006142012202EB4101001BF6E7F0BC70477E
:1002300081F00041AAE780F00040A7E780EA0102D0
:1002400010B502F00043400022D04A001FD0010E3A
:1002500001EB1261C0F35600C2F3560240F40000F5
:1002600042F40002A0FB022000047F39140400D0F5
:10027000401C50EA124001D44000491EC2B20C0694
:1002800004EBD010401C4008802A02D003E000207C
:1002900010BD20F00100002900DA0020184310BD35
:1002A00030B480EA010202F0004530F0004221F053
:1002B000004013D090B1C30DD40DC2F31601C0F3AA
:1002C0001600E41A41F4000140F400027D3491422A
:1002D00001D3641C00E04900002C02DA30BC00208D
:1002E00070474FF400000023914201D3891A034361
:1002F00040084FEA4101F7D151B1914202D14FF08C
:10030000004105E002D24FF0010101E06FF0010170
:1003100003EBC450284430BC00F0C9B92DE9FE4FAE
:10032000804681EA0300C00F0C46009021F0004196
:1003300023F00045B8EB0200A94105D24046214612
:1003400090461C460B46024623F00040104347D01F
:10035000270DC7F30A00C3F30A510290401A019017
:1003600040286BDAC3F3130040F4801B00989246D8
:1003700020B10023D2EB030A63EB0B0B0198594623
:10038000C0F14002504600F061F906460D46504665
:100390005946019A00F079F910EB080061410024F8
:1003A00087EA115284EAE7731A4340D0009A62B395
:1003B000019A012A4FEA075215DC001B61EB02018A
:1003C0004FF0004202EA0752CDE90042001C41F51D
:1003D000801132462B4600F0B0F903B0BDE8F08F33
:1003E00040462146F9E7001B61EB0201001C41F584
:1003F000801300185B412018A2F5001747EB03019A
:1004000040EAD570B6196D4111E06D084FEA360625
:1004100045EAC0754FEA0752001B61EB0201001C60
:1004200041F5801149084FEA300000195141324628
:100430002B4603B0BDE8F04F00F070B900980122E0
:1004400040000023D0EB020263EBE07300982146EA
:100450004FEAE074B8EB000061EB0401E9E783F0D8
:1004600000435BE781F0004158E72DE9FE4F81EA48
:10047000030404F0004421F0004100944FF0000B0D
:1004800023F0004350EA01045ED052EA03045BD03B
:10049000C3F30A54C1F30A552C44A4F2F334019473
:1004A000A0FB0254C1F3130141F48011C3F3130301
:1004B00043F4801301FB024400FB034E840A970AB5
:1004C00044EA815447EA8357A4FB076802958D0AE2
:1004D00005FB07854FEA932C04FB0C542705029D6E
:1004E0004FEA065847EA1637B5EB08056EEB070CDE
:1004F000870E920E47EA811742EA8312A7FB020198
:10050000B6EB0B0164EB00042B0D43EA0C335E18D1
:1005100044EB1C50DA465146E7FB0201C5F31304D5
:100520004FEA0B3343EA14534FEA0432019C43EA87
:100530000603A4F10C040294009CCDE900B400F081
:10054000FCF803B0BDE8F08F00200146F9E79623E0
:100550000022114600F0B4B80EB5C10F80EAE07079
:100560000844CA07002140F233438DE80E000A46D2
:100570000B4600F0E2F803B000BD0EB540F2334187
:1005800002910021CDE900110A460B4600F0D5F892
:1005900003B000BD20F00040C10DC0F3160040F4D0
:1005A00000007F2901DA00207047962903DCC1F1A1
:1005B0009601C8407047963988407047C1F30A5287
:1005C00010B5C1F3130140F2FF3341F480119A4298
:1005D00001DA002010BD40F233439A42A2F23342C6
:1005E00003DC524200F041F810BD904010BD00F015
:1005F000004230F000400AD0C10D01F56071C0F337
:10060000160042EA0151C20840071143704700201A
:100610000146704701F0004330B421F0004150EA38
:10062000010206D00A0DA2F56072C1F31301002A7F
:1006300002DC30BC00207047440F44EAC104C10012
:10064000E01830BC00EBC25000F031B8202A04DBC7
:10065000203A00FA02F1002070479140C2F12003D5
:1006600020FA03F3194390407047202A04DB203A14
:1006700021FA02F00021704721FA02F3D040C2F1C2
:1006800020029140084319467047202A06DBCB1709
:10069000203A41FA02F043EAE07306E041FA02F33D
:1006A000D040C2F12002914008431946704700290A
:1006B000A8BF7047401C490008BF20F001007047E8
:1006C00010B4B0FA80FC00FA0CF050EA010404BF48
:1006D00010BC704749B1CCF1200421FA04F411FA9E
:1006E0000CF118BF012121430843A3EB0C01CB1DE2
:1006F0004FEA00614FEA102042BF002010BC704753
:1007000000EBC35010440029A4BF10BC7047401C2C
:10071000490008BF20F0010010BC704710B5141E3E
:1007200073F1000408DA401C41F1000192185B41AA
:100730001A4301D120F0010010BD2DE9F04D924681
:100740009B4611B1B1FA81F202E0B0FA80F2203298
:100750009046FFF77BFF04460F4640EA0A0041EA55
:100760000B0153465A46084313D0114653EA010081
:1007700019D0C8F140025046FFF777FF05460E46F4
:10078000504659464246FFF761FF084305D0012015
:1007900004E020463946BDE8F08D0020054346EAD6
:1007A000E0762C4337430A986305E40AA0EB08007F
:1007B0000022FD0A44EA47540A3002D500200146CF
:1007C000E9E7010510196941DDE9084500196941AA
:1007D000BDE8F04DA2E72DE9F04D81EA030404F0F5
:1007E000004B21F0004514464FF0000A23F0004171
:1007F00050EA050220D054EA01021DD0C5F30A5781
:100800000246C5F31303C1F31300C1F30A5640F4C3
:10081000801543F48013A7EB0608101BD64608F298
:10082000FD3873EB050002D308F1010801E09218CE
:100830005B41B8F1000F03DA00200146BDE8F08DFE
:1008400000204FF48011064684460EE0171B73EB20
:10085000050705D3121B63EB050306434CEA010CA5
:1008600049084FEA300092185B4150EA0107EDD188
:1008700052EA030012D082EA040083EA0501084329
:1008800005D0101BAB4106D20122002306E0002256
:100890004FF0004302E06FF0010253101AEB060024
:1008A0004CEB085110EB0A0041EB0B01BDE8F04D99
:1008B000FFF734BF70B521F0004303430CD0C1F300
:1008C0000A550024D5EB040564EB0403D617AD1AD2
:1008D000B34102DB0020014670BD201841EB0251FC
:1008E00070BD2DE9F04D00231A461B1A8A4103DB27
:1008F00000200146BDE8F08DC1F30A52C1F3130197
:1009000041F480154FF0000BD10702D100186D4162
:10091000521E0027044640F2FF11384601EB620ADE
:100920003E468046024600204FF48011FFF79DFEB0
:10093000C2197141BB1846EB0100B4EB030C75EB17
:10094000000C04D3E41A65EB000517460E46241983
:1009500008F101006D4180463428E3DDF91946EBCA
:100960000600091BA84103D24FF0FF32134601E0F5
:10097000002213461BEB070046EB0A51BDE8F04D81
:10098000FFF7CCBE30B5041E71F1000404DB4FF05C
:100990000044404264EB0101141E73F1000405DBC6
:1009A0001C464FF00043524263EB0403994208BFD8
:1009B000904230BD064C074D06E0E06840F0010370
:1009C00094E8070098471034AC42F6D3FFF7B4FB25
:1009D000BC3E0008DC3E000810B500F09FFC4FF460
:1009E000045000F067F842F2380000F063F84FF46A
:1009F000404000F05FF84FF4045000F05BF86420D2
:100A000000F01EF810BD000010B5044608210B4888
:100A100000F052FD1021094800F04EFD402107482A
:100A200000F04AFD4021054800F046FD4021034802
:100A300000F040FD204600F03DF810BD00080140E8
:100A400010B504462146002000F002F810BD000059
:100A50002DE9FC47064689464846FFF78EFD0746C6
:100A6000124A134BFFF701FDCDE90001FFF7A6FD88
:100A7000824654464FEA9A3546B924F4004444F479
:100A8000804425F4004545F4804507E024F4804483
:100A900044F4004425F4804545F40045204600F028
:100AA00009F8284600F006F8BDE8FC87F8BA40D8F7
:100AB00013A20C4070B504461021154800F0FCFC50
:100AC0000821134800F0F6FC002516E004F400406D
:100AD00020B120210E4800F0EFFC03E020210C485B
:100AE00000F0E8FC10210A4800F0E4FC640010214A
:100AF000074800F0E1FC681CC5B2102DE6DB2021A0
:100B0000034800F0D7FC0821014800F0D5FC70BD77
:100B1000000801401FB593F8780000EB400003EB9C
:100B200080009DE8160016C093F87800401C83F8FA
:100B300078001FBD1FB593F8780000EB400003EB71
:100B400080009DE8160016C093F87800401C83F8DA
:100B500078001FBD10B501F088FA00F071FF00F0B9
:100B6000E5F801F0ABF9FFF737FF01F0DFFE01F028
:100B700057FD0020044981F87800044981F8780085
:100B800081F8790010BD0000EC0100207402002003
:100B900000B589B0124801F081FC114807C801F086
:100BA000DDFF104B0E4807C801F088FF0D4B0E48C3
:100BB00007C801F051FE24220A4910316846FFF7A8
:100BC000D3FA08480FC800F037F8054807C801F005
:100BD0008DFF06480178034801F053FD09B000BDC0
:100BE000AC010020B8010020680200207400002041
:100BF00000BFFEE770477047002101E04A1CD1B2F8
:100C0000826A525C002AF9D180F83010012902D1A1
:100C100006A2C26208E0022902D105A2C26203E074
:100C2000032901D103A2C262704700002000000026
:100C300020200000202020000FB410B59DF83810AF
:100C40000020029A01F0AAFA002427E09DF82C0067
:100C5000A04206D1A11CC8B200210C9A01F09EFA54
:100C600005E0A11CC8B200210D9A01F097FA03AB70
:100C700053F834209DF83810A31CD8B201F08EFA36
:100C800003AB03EBC4035A689DF838309B1DD9B2FF
:100C9000A31CD8B201F082FA601CC4B2032CD5DDCB
:100CA00010BC5DF814FB00001FB50446002005E0F1
:100CB0001649095C03AA1154411CC8B20428F7DB89
:100CC000002006E0114A011D515C01AA1154411C8B
:100CD000C8B20828F6DB002007E00C4A00F10C013E
:100CE000515C0DF80010411CC8B20428F5DB214608
:100CF00003A801F08BFE211D01A801F09BFE04F169
:100D00000801684601F082FE1FBD00008800002037
:100D100070B504460D46281B401C82B2214602488D
:100D200000F00EF870BD00008800002010B500F043
:100D3000BDFA00F077FCFF210020FFF7E9FF10BDAE
:100D400070B505460E46144600206F4908800DE038
:100D50006D490888411C6C4A1180B0F57A7F05D135
:100D600001216A4800F0B6FC002070BD4FF400314C
:100D7000664800F0BBFC0028EAD1634908800121E5
:100D8000624800F09BFC0DE05F490888411C5E4A08
:100D90001180B0F57A7F05D101215C4800F09AFC02
:100DA0000020E2E75A49594800F0EEFB0028EBD05A
:100DB0000022A021554800F03CFD00205249088047
:100DC0000DE051490888411C4F4A1180B0F57A7FE7
:100DD00005D101214D4800F07DFC0020C5E74D49BB
:100DE0004A4800F0D1FB0028EBD00121474800F031
:100DF000E6FB3146454800F025FD002042490880C9
:100E00000DE041490888411C3F4A1180B0F57A7FC6
:100E100005D101213D4800F05DFC0020A5E73D49DA
:100E2000891C3A4800F0B0FB0028EAD0012137487D
:100E300000F044FC0020344908800DE03249088865
:100E4000411C314A1180B0F57A7F05D101212F482C
:100E500000F040FC002088E72D492C4800F094FB6E
:100E60000028EBD00122A021284800F0E2FC00205D
:100E7000254908800DE024490888411C224A118038
:100E8000B0F57A7F05D10121204800F023FC002035
:100E90006BE71F49491C1D4800F076FB0028EAD08B
:100EA00029E0012C07D10021184800F061FB012145
:100EB000164800F00FFC0020134908800DE012498D
:100EC0000888411C104A1180B0F57A7F05D10121B4
:100ED0000E4800F0FFFB002047E70D493F310B486B
:100EE00000F052FB0028EAD0084800F09EFC287071
:100EF0006D1C601E84B2002CD3D10121034800F088
:100F000037FB002031E700002A0000200054004099
:100F1000010003008200070070B504460D46281B3F
:100F2000401C82B22146024800F03EF870BD00002D
:100F30008800002008B5002000901849088000BFF4
:100F40000121174800F0BAFB1421154800F062FC9B
:100F500000900022A021124800F06BFC0F49088885
:100F6000411C0E4A1180B0F57A7F05D101210C4851
:100F700000F0B0FB002008BD1421094800F04AFC35
:100F800000F002000028DBD00649054800F011FB04
:100F90000121034800F09EFB0120ECE72A0000201D
:100FA00000540040000400102DE9F04707460D46AC
:100FB00014464FF00008C146C24600262846E917ED
:100FC00005EB5171C910A5EBC10101F0FF0ACAF18F
:100FD0000800C6B22046E11704EB5171C1F3C708FF
:100FE000E11704EB5171C910A4EBC10101F0FF0935
:100FF000BAF1000F28D1B8F1000F07D14A462946AF
:10100000384600F067F8FFF795FF60E00AE0082235
:101010002946384600F05EF8FFF78CFF05F108001E
:10102000C5B20837B8F10000A8F1010101F0FF08CE
:10103000EDD1B9F1000F4AD04A462946384600F0B2
:1010400049F8FFF777FF42E0B8F1000F07D14A46B1
:101050002946384600F03EF8FFF76CFF37E0A01B4A
:1010600084B22046E11704EB5171C1F3C708E117C0
:1010700004EB5171C910A4EBC10101F0FF094EB19D
:1010800032462946384600F025F8FFF753FFA819E5
:10109000C5B237440AE008222946384600F01AF85B
:1010A000FFF748FF05F10800C5B20837B8F10000A6
:1010B000A8F1010101F0FF08EDD1B9F1000F06D050
:1010C0004A462946384600F005F8FFF733FFBDE8E9
:1010D000F087000070B504460E46154600204C49C6
:1010E00008800DE04A490888411C494A1180B0F542
:1010F0007A7F05D10121474800F0ECFA002070BD4D
:101100004FF40031434800F0F1FA0028EAD1012100
:10111000404800F0D3FA00203D4908800DE03C49EA
:101120000888411C3A4A1180B0F57A7F05D1012127
:10113000384800F0CFFA0020E1E73749354800F0A1
:1011400023FA0028EBD00022A021324800F071FBE6
:1011500000202F4908800DE02D490888411C2C4AA9
:101160001180B0F57A7F05D101212A4800F0B2FA4A
:101170000020C4E72949274800F006FA0028EBD0F0
:101180003146244800F05EFB0020214908800DE034
:101190001F490888411C1E4A1180B0F57A7F05D18D
:1011A00001211C4800F096FA0020A8E71B49891C81
:1011B000184800F0E9F90028EAD01DE02178154828
:1011C00000F040FB641C0020114908800DE010492C
:1011D0000888411C0E4A1180B0F57A7F05D10121A3
:1011E0000C4800F077FA002089E70C49891C09486F
:1011F00000F0CAF90028EAD0281EA5F10101CDB2FD
:10120000DCD10121034800F065FA012077E70000F6
:101210002A00002000540040010003008200070063
:10122000018842F20202914202D1891D01800BE045
:10123000018842F20802914203D142F22801018062
:1012400002E042F2020101807047018842F202028C
:10125000914203D142F2280101800AE0018842F262
:101260000802914202D1891F018002E042F2080186
:101270000180704708B50121082001F057F90320CB
:101280008DF802001C208DF803004020ADF800000E
:101290006946054800F07AF88020ADF800006946FC
:1012A000014800F073F808BD000C014008B50121A9
:1012B000082001F03BF91C208DF8030003208DF875
:1012C00002004020ADF800006946054800F05EF8D5
:1012D0008020ADF800006946014800F057F808BDCD
:1012E000000C014008B50121082001F01FF91C2065
:1012F0008DF8030003208DF802004020ADF80000B7
:101300006946054800F042F88020ADF800006946C3
:10131000014800F03BF808BD000C014008B5012170
:10132000042001F003F903208DF8020010208DF84D
:101330000300ADF800006946134800F027F82020AC
:10134000ADF800006946104800F020F84020ADF8E4
:10135000000069460C4800F019F80820ADF80000BC
:101360006946094800F012F80120ADF8000069460E
:10137000054800F00BF80220ADF80000694602486D
:1013800000F004F808BD0000000801402DE9F0411C
:10139000024600250026002000230024002791F8A3
:1013A00003C00CF00F0591F803C00CF0100CBCF159
:1013B000000F03D091F802C04CEA050591F800C077
:1013C000BCF1000F31D0146800202BE04FF0010C6D
:1013D0000CFA00F3B1F800C00CEA03069E4220D1DB
:1013E00083004FF00F0C0CFA03F7BC4305FA03FC23
:1013F0004CEA040491F803C0BCF1280F06D14FF069
:10140000010C0CFA00FCC2F814C00AE091F803C009
:10141000BCF1480F05D14FF0010C0CFA00FCC2F8EA
:1014200010C0401C0828D1D31460B1F800C0BCF132
:10143000FF0F34DD546800202EE000F1080C4FF05F
:10144000010808FA0CF3B1F800C00CEA03069E424A
:1014500021D183004FF00F0C0CFA03F7BC4305FABF
:1014600003FC4CEA040491F803C0BCF1280F05D139
:1014700000F1080C08FA0CF8C2F8148091F803C0C7
:10148000BCF1480F07D100F1080C4FF0010808FA31
:101490000CF8C2F81080401C0828CED35460BDE878
:1014A000F0810246002093680B400BB1012000E060
:1014B0000020704741617047016170470FB430B53B
:1014C0008DB09DF8B800401EC4B204208DF8E00035
:1014D00023A12FA8C16122A101623AE09DF8B800C2
:1014E00000B937E000F0B8FA05461F48C078A842B6
:1014F00004D1002C0DDD601EC4B20AE01A488078C9
:10150000A84206D19DF8B800401EA04201DD601C33
:10151000C4B21548C079A84200D11BE004EB4400D6
:1015200010A901EB800207CA0AAB07C30AA807C8C3
:1015300001F014FB2FAB0AA807C801F0BFFA242260
:1015400033A96846FEF710FE2FA80FC8FFF774FBFB
:1015500000BFC3E700BF0DB030BC5DF814FB000056
:101560002020202020200000F002002000BFFEE705
:1015700021B1028842F48062028004E002884FF6C2
:10158000FF331A400280704770B5024600240025E0
:1015900000230020958A138B1B0445EA030626F0DE
:1015A0007F4404EA01068E4201D1012000E00020C0
:1015B00070BD002221F07F42D3438382704721B166
:1015C000028842F00102028004E002884FF6FE73B6
:1015D0001A400280704700001FB50121480500F045
:1015E00095FF0020ADF804004BF6FF70ADF8060043
:1015F0000A20ADF808004FF48060ADF80A00000141
:10160000ADF80C00054800906946054800F08CF8DC
:1016100001210348FFF7D3FF1FBD0000801A060019
:10162000005400401FB50121480500F06FFF002065
:10163000ADF804004BF6FF70ADF806000A20ADF8D7
:1016400008004FF48060ADF80A000001ADF80C000E
:10165000054800906946054800F066F801210348F6
:10166000FFF7ADFF1FBD0000801A060000540040C8
:101670001FB50121480500F049FF0020ADF8040026
:101680004BF6FF70ADF80600C020ADF808004FF42F
:101690008060ADF80A000001ADF80C00054800902C
:1016A0006946054800F040F801210348FFF787FF2D
:1016B0001FBD0000801A06000054004021B10288BE
:1016C00042F48072028004E002884FF6FF631A4001
:1016D0000280704721B1028842F40072028004E067
:1016E00002884FF6FF531A40028070470CB502463D
:1016F000002000230193009300920B0F019321F02F
:101700007F41019B1BB1009B1433009303E0090C44
:10171000009B18330093009B1B680B400BB101200A
:1017200000E000200CBD00002DE9F04385B0044628
:101730000D460026B1460427DFF8CC80A6884FF678
:10174000C0700640684600F001FFDDF808802F48B1
:10175000B8FBF0F01FFA80F946EA0906A680208857
:101760004FF6FE71084020800026294928688842EB
:101770000CD828684000B8FBF0F087B2042F00DADC
:1017800004273E4309F10100208427E0E8884BF656
:10179000FF71884206D1286800EB4000B8FBF0F0EA
:1017A00087B209E0286800EBC00101EB0010B8FB2C
:1017B000F0F087B247F48047C7F30B0008B947F051
:1017C000010747F4004006434FF4967009FB00F010
:1017D0004FF47A7190FBF1F0401C2084A68320889E
:1017E00040F00100208026884FF6F5300640A8889A
:1017F0006989084306432680A889298908432081EE
:1018000005B0BDE8F083000000127A0040420F00EE
:10181000A086010008B502460020009000920098C2
:10182000084400900098008808BD0146088AC0B2AC
:10183000704712B141F0010102E04FF6FE7319400A
:1018400001827047018270470FB42DE9F04F8DB0CF
:101850008246002434A103C9CDE9090132A11B91BC
:101860005AE000F0F9F88146B9F1300F0FDBB9F119
:10187000390F0CDC062C0ADAA9F130000BA9085547
:1018800009A800F8049009A91B91601CC4B228485B
:101890004079484536D10020CAF8040083462EE03E
:1018A000A4EB0B01481EFEF757FE07463A460B46CF
:1018B0000020204901F082FC05460E460BA911F8D4
:1018C0000B00FEF75AFE2A463346CDE90001FEF72B
:1018D000CCFDCDE90401DAF80400FEF74EFECDE9B7
:1018E0000201DDE90423FEF719FDCDE90601FEF74B
:1018F00065FECAF804000BF1010000F0FF0BA345E0
:10190000CEDB0AE024221BA96846FEF72DFC17A8AF
:101910000FC8FFF791F900BFA3E700BF0DB0BDE806
:10192000F00F5DF814FB0000202020202020000094
:10193000F0020020000024400FB42DE9F04F8DB0DC
:101940008246002434A103C9CDE90A0132A11D91C8
:101950005AE000F081F88146B9F1300F0FDBB9F1A0
:10196000390F0CDC042C0ADAA9F130000CA9085557
:101970000AA800F804900AA91D91601CC4B2284866
:101980004079484536D10020CAF8080083462EE049
:10199000A4EB0B01481EFEF7DFFD07463A460B4657
:1019A0000020204901F00AFC05460E460CA911F85A
:1019B0000B00FEF7E2FD2A463346CDE90201FEF7B1
:1019C00054FDCDE90601DAF80800FEF7D6FDCDE9B1
:1019D0000401DDE90623FEF7A1FCCDE90801FEF7CD
:1019E000EDFDCAF808000BF1010000F0FF0BA34564
:1019F000CEDB0AE024221BA96846FEF7B5FB17A838
:101A00000FC8FFF719F900BFA3E700BF0DB0BDE88D
:101A1000F00F5DF814FB00002020202020200000A3
:101A2000F00200200000244010B5002404E020460D
:101A300000F04CFA601C84B2B4F5805FF7DB10BD97
:101A400010B50121202000F071FD01214FF49070AC
:101A500000F06CFD10BD000010B500F013F8044656
:101A600007480078844209D0142000F039FF00F0C4
:101A700009F8044602480470204610BD4620FCE7E1
:101A800070000020F8B548208DF8030000240CE019
:101A9000474830F81400ADF80000464951F82400DA
:101AA0006946FFF773FC601CC4B2042CF0DB102005
:101AB0008DF8030003208DF80200002414E03E4856
:101AC00030F81400ADF800003C4951F82400694694
:101AD000FFF75CFC384A32F81410384A52F82400F8
:101AE000FFF7E8FC601CC4B2042CE8DB00240DE026
:101AF0002F4A32F814102F4A52F82400FFF7D1FC75
:101B000008B9254604E00425601CC4B2042CEFDBB0
:101B100000BF48208DF8030000240CE0264830F870
:101B20001400ADF80000254951F824006946FFF77C
:101B30002DFC601CC4B2042CF0DB10208DF80300D7
:101B400003208DF80200002414E0194830F8140036
:101B5000ADF80000174951F824006946FFF716FC5C
:101B6000134A32F81410134A52F82400FFF7A2FC6B
:101B7000601CC4B2042CE8DB00240DE00E4A32F8ED
:101B800014100E4A52F82400FFF78BFC08B92646C1
:101B900004E00426601CC4B2042CEFDB00BF042D5B
:101BA00001D14520F8BD064800EB8500805DF9E7CE
:101BB000500000203000002058000020400000208D
:101BC00060000020412009490870422048703420FC
:101BD000C8703620887044200871487148722A20E5
:101BE00088712320C871087270470000F00200203D
:101BF00010B586B00146002211B912A006B010BD82
:101C00000BE00A20B1FBF0F300FB13100DF802000B
:101C10000A20B1FBF0F1501CC2B20029F1D1002022
:101C200008E0131A5B1E1DF803303033064C2354B2
:101C3000431CD8B29042F4DB0020034B9854184662
:101C4000DCE70000300000009301002010B5002404
:101C500010E0204604EBD0714910A4EB410121B9FA
:101C600040F6FF7000F032F902E0002000F02EF99B
:101C7000601C84B2B4F5007FEBDB4FF4007419E014
:101C8000204604EBD0714910A4EB410141B941F267
:101C9000FF31022202FB141188B200F017F907E0AD
:101CA00040F6FF71022202FB141188B200F00EF917
:101CB000601C84B2B4F5006FE2DB4FF4006415E001
:101CC000204604EBD0714910A4EB410131B9610009
:101CD000A1F6044188B200F0F9F805E06100A1F630
:101CE000FF7188B200F0F2F8601C84B2B4F5606F46
:101CF000E6DB4FF4606410E0204604EBD07149103D
:101D0000A4EB410121B940F6FF7000F0DFF802E0DA
:101D1000002000F0DBF8601C84B240F6FF708442C3
:101D2000EADB401000F0D2F83C2000F0D9FD10BDF5
:101D300070B5002414E0204604EBD0714910A4EBE8
:101D4000410129B9FEF703FC054600F065F805E0FE
:101D50002046FEF7FCFB054600F012F8601C84B23A
:101D6000B4F5805FE7DB002404E04FF4406000F04E
:101D7000ADF8641C40F2FF308442F6D370BD000021
:101D80002DE9F041044620492046FEF751FA044669
:101D90001E492046FEF784FA04462046FEF727FC3B
:101DA00021F000410546FEF735FC04464FF0804126
:101DB0002046FEF775FA04464FF07E512046FEF7A6
:101DC0003AFA04462046FEF712FC054601F0E2FE10
:101DD0000746FEF71FFC04460D492046FEF72EFA83
:101DE00004460A492046FEF729FA044609492046D6
:101DF000FEF7CCF904462046FEF7CCFB85B2284618
:101E000000F064F8BDE8F08100E0FF4400007A448F
:101E1000000040C000F03F452DE9F0410446244950
:101E20002046FEF705FA044622492046FEF738FA16
:101E300004462046FEF7DBFB21F000410546FEF795
:101E4000E9FB04464FF07E512046FEF7F1F90446C7
:101E50002046FEF7CCFB054600224FF0804301F000
:101E6000ADF90746FEF7D6FB04464FF07E512046FB
:101E7000FEF7E1F904462046FEF7B9FB054601F0FE
:101E800089FE0746FEF7C6FB04460A492046FEF7D0
:101E9000D5F9044608492046FEF778F9044620465D
:101EA000FEF778FB85B2284600F010F8BDE8F08117
:101EB00000E0FF4400007A4400F03F4510B5FFF712
:101EC00011FAFFF7D5FB10BD7047000070B504464E
:101ED00004F470600512E6B200204D4908800FE05E
:101EE0004B480088401C4A49088008460088B0F5E5
:101EF0007A7F05D101214748FFF7ECFB002070BD38
:101F00004FF400314348FFF7F1FB0028E8D10121ED
:101F10004048FFF7D3FB00203D4908800FE03C48D4
:101F20000088401C3A49088008460088B0F57A7F4E
:101F300005D101213748FFF7CDFB0020DFE7364907
:101F40003448FFF721FB0028E9D00022C0213148A6
:101F5000FFF76FFC00202E4908800FE02C48008816
:101F6000401C2B49088008460088B0F57A7F05D1CF
:101F700001212848FFF7AEFB0020C0E7274925488C
:101F8000FFF702FB0028E9D029462248FFF75AFC58
:101F900000201F4908800FE01D480088401C1C4994
:101FA000088008460088B0F57A7F05D101211948DC
:101FB000FFF790FB0020A2E71849891C1548FFF79E
:101FC000E3FA0028E8D031461248FFF73BFC002036
:101FD0000F4908800FE00E480088401C0C4908801B
:101FE00008460088B0F57A7F05D101210948FFF73E
:101FF00071FB002083E70949891C0648FFF7C4FAF2
:102000000028E8D001210348FFF764FB012076E7B0
:102010002C00002000540040010003008200070053
:1020200000BFFEE7704710B5002000F001F810BDBA
:1020300070B50646002415E004F1B001C8B200F006
:1020400069F9002000F066F9102000F063F900251E
:1020500004E0304600F065F9681CC5B2802DF8DB5D
:10206000601CC4B2082CE7DB70BD10B5FFF702F9A5
:10207000FFF7B2FA4FF47A7000F032FCAE2000F0B5
:1020800049F9202000F046F9102000F043F9B02073
:1020900000F040F9C82000F03DF9002000F03AF9C6
:1020A000102000F037F9402000F034F9812000F0D2
:1020B00031F9FF2000F02EF9A12000F02BF9A62025
:1020C00000F028F9A82000F025F93F2000F022F9BF
:1020D000A42000F01FF9D32000F01CF9002000F02C
:1020E00019F9D52000F016F9F02000F013F9D920E5
:1020F00000F010F9222000F00DF9DA2000F00AF9C2
:10210000122000F007F9DB2000F004F9202000F095
:1021100001F98D2000F0FEF8142000F0FBF8AF204C
:1021200000F0F8F8FFF77FFF10BD70B504460D46CC
:1021300005F1B001C8B200F0EDF8102141EA141029
:1021400000F0E8F804F00F0141F0010000F0E2F8BF
:1021500070BD00002DE9F04104460D461746142DD0
:1021600018DC072C16DC05EB45014906080E214654
:10217000FFF7DBFF00260BE0A7F1200101EB410197
:10218000054A02EB4101885D00F0CBF8701CC6B235
:10219000062EF1DBBDE8F081E03B00082DE9F041BF
:1021A00007460E461546002406E02A5D3019C1B2E6
:1021B0003846FFF7CFFF641C285D0028F5D1BDE845
:1021C000F081000070B504460D4600204D4908809E
:1021D0000FE04C480088401C4A49088008460088A7
:1021E000B0F57A7F05D101214748FFF773FA002047
:1021F00070BD4FF400314448FFF778FA0028E8D169
:1022000001214148FFF75AFA00203E4908800FE0BB
:102210003C480088401C3B49088008460088B0F5CF
:102220007A7F05D101213848FFF754FA0020DFE713
:1022300036493548FFF7A8F90028E9D0002278216F
:102240003148FFF7F6FA00202E4908800FE02D48AC
:102250000088401C2B49088008460088B0F57A7F2A
:1022600005D101212848FFF735FA0020C0E72849A9
:102270002548FFF789F90028E9D021462248FFF7D1
:10228000E1FA00201F4908800FE01E480088401C2A
:102290001C49088008460088B0F57A7F05D10121E5
:1022A0001948FFF717FA0020A2E71949891C1648B8
:1022B000FFF76AF90028E8D029461348FFF7C2FA69
:1022C0000020104908800FE00E480088401C0D498E
:1022D000088008460088B0F57A7F05D101210A48B8
:1022E000FFF7F8F9002083E70949891C0648FFF742
:1022F0004BF90028E8D001210348FFF7EBF9012052
:1023000076E7000028000020005400400100030090
:102310008200070010B5044621460020FFF752FF57
:1023200010BD10B5044621464020FFF74BFF10BDFD
:1023300010B5FFF747FC00203249087032A035493C
:10234000086035A0486036A13248C16036A14161BD
:1023500037A1C16138A02F4988620846FEF74CFCBE
:102360000020364908813648086036A04860374B5F
:10237000084607C8FEF7CEFB35483049086035A04F
:102380004860324B084607C8FEF7C4FB33482B4968
:10239000086033A048602D4B084607C8FEF7BAFB1B
:1023A00031482649086031A04860284B084607C8D4
:1023B000FEF7B0FB2F48214908602FA04860234B4F
:1023C000084607C8FEF7A6FB2D481C4908602DA04B
:1023D00048601E4B084607C8FEF79CFB2B48174970
:1023E00008602BA04860194B084607C8FEF792FB0F
:1023F0001249164BD3E900209B68C1E901030A602A
:1024000010BD00007400002057617665666F726D24
:1024100000000000B8010020466F726D3A200000F5
:10242000467265713A200000506B506B3A200000F4
:10243000537065633A2000003D3E000068020020B2
:10244000C91E00084E6F6E65202000007402002037
:10245000291A00084A75636869200000B927000836
:102460005368616E706F0000C12C000858696E6778
:10247000796F0000A92B000858696E6720200000C2
:102480004D1C00084D20202020200000311D000898
:10249000486561727420000070470000018842F2B4
:1024A0000202914203D00188921D914224D148F248
:1024B000E8024168914203D240F2622181601EE04D
:1024C0000F4A4168914203D24FF41671816016E0C1
:1024D0000C4A4168914203D240F24E2181600EE0E5
:1024E000094A4168914203D24FF41171816006E0BC
:1024F00040F23A21816002E040F648518160704725
:10250000A0860100F049020098AB020029B1064AFA
:10251000D2690243044BDA6104E0034AD269824380
:10252000014BDA61704700000010024029B1064AF1
:1025300092690243044B9A6104E0034A9269824320
:10254000014B9A61704700000010024030B5002135
:102550000022002400232D4D6D6805F00C0121B1EF
:10256000042905D0082923D105E0294D056022E082
:10257000274D05601FE0254D6D6805F47012234D51
:102580006D6805F48034022505EB92421CB9214D9B
:10259000554305600BE01D4D6D6805F400351DB118
:1025A0001C4D5543056002E0194D5543056002E09E
:1025B000174D056000BF00BF144D6D6805F0F001B8
:1025C0000909154D6B5C0568DD4045600F4D6D6870
:1025D00005F4E061090A104D6B5C4568DD408560DB
:1025E0000A4D6D6805F46051C90A0B4D6B5C456876
:1025F000DD40C560054D6D6805F44041890B074D10
:102600006B5CC568B5FBF3F5056130BD0010024099
:1026100000127A0000093D00140000202400002070
:1026200008B501212020FFF781FF10208DF803005D
:10263000ADF8000003208DF8020069460348FEF75C
:10264000A5FE42F2080000F003F808BD00140140A6
:1026500010B5044642F20200844202D0801D84423A
:1026600004D110210548FEF727FF03E0102103489D
:10267000FEF720FF2046FEF7C7F910BD0014014009
:10268000704780F82410704730B5012A0CD191F8BA
:10269000794091F878305B1E9C420EDA91F87930DF
:1026A0005B1C81F8793008E091F87930002B04DD6B
:1026B00091F879305B1E81F8793091F8793003EB2D
:1026C000430301EB830538CD80E8380030BD10B5F9
:1026D00000F002F810BD00000CB500200190009041
:1026E0003348006840F480303149086000BF30480A
:1026F000006800F4003000900198401C01900098A0
:1027000018B90198B0F5A06FF1D12948006800F41C
:10271000003010B10120009001E0002000900098EE
:10272000012843D12348006840F010002149086087
:102730000846006820F0030008600846006840F082
:10274000020008601A484068194948600846406815
:1027500048600846406840F4806048600846406829
:1027600020F47C1048600846406840F4E810486057
:102770000846006840F08070086000BF0C480068A0
:1027800000F000700028F9D00948406820F00300EC
:10279000074948600846406840F00200486000BFB2
:1027A0000348406800F00C000828F9D10CBD000077
:1027B00000100240002002402DE9F05F4FF0000AB7
:1027C00018E01D490AFB1A10FDF7C6FE064601F087
:1027D000E1F980460022194BFDF744FE0446FDF75F
:1027E000EDFE1FFA80FB5846FFF770FB0AF101006F
:1027F0001FFA80FABAF5006FE3DB4FF4006414E0CF
:10280000A4F2FF710A460C4B01FB1230FDF7A4FE47
:10281000074601F0BFF90546FDF7D0FE1FFA80F923
:102820004846FFF753FB601C84B240F6FF708442B9
:10283000E6DBBDE8F09F000001F03F000000A04093
:1028400037B5002403E000988047601C84B2BDF8CF
:102850000800A042F7DA3EBD0FB5019919620FBD1D
:10286000002104E0425C02B903E04A1CD1B207290E
:10287000F8DB00BF0A4603E020238354531CDAB27E
:10288000062AF9DB002282717047000030B501464C
:10289000B1F1807F01D3012030BD21F07F40401E87
:1028A0004FF0E022506150170F22002807DA13077B
:1028B0001D0E094B00F00F04241F1D5503E01307E4
:1028C0001C0E064B1C5400BF00204FF0E02290610C
:1028D000072010610020DFE718ED00E000E400E0D1
:1028E00031B5104800684FF47A71B0FBF1F420461E
:1028F000FFF7CCFF002008E000BF4FF0E02109699E
:1029000001F480310029F8D0401C00998842F3D3AB
:102910004FF0E020006920F001004FF0E021086155
:1029200038BD0000000000207047000010B50648C8
:1029300000680649B0FBF1F42046FFF7A7FF012825
:1029400001D100BFFEE710BD00000020A0860100FD
:1029500010B51348006840F00100114908600846AE
:102960004068104908400E494860084600680E4912
:1029700008400B4908600846006820F48020086081
:102980000846406820F4FE0048604FF41F0088604D
:10299000FFF79DFE4FF000600449086010BD000085
:1029A000001002400000FFF8FFFFF6FE08ED00E017
:1029B000704770471EB50146002209B911A01EBD1F
:1029C0000BE00A20B1FBF0F300FB13100DF802003E
:1029D0000A20B1FBF0F1501CC2B20029F1D1002055
:1029E00008E0131A5B1E1DF803303033064C2354E5
:1029F000431CD8B29042F4DB0020034B9854184695
:102A0000DDE70000300000008801002010B502461C
:102A10000020086000BF0AE0135C4400C4F1060413
:102A2000A400A3400C6823440B60431CD8B20428C4
:102A3000F2DB10BD10B502460020086000BF0AE0BE
:102A4000135C4400C4F10E04A400A3400C682344AA
:102A50000B60431CD8B20828F2DB10BD70477047EA
:102A600010B5024600200EE04300C3F106039C00AF
:102A7000FF23A34013404400C4F10604A400E34034
:102A80000B54431CD8B20428EEDB10BD10B502462F
:102A900000200EE04300C3F10E039C00FF23A3407F
:102AA00013404400C4F10E04A400E3400B54431C43
:102AB000D8B20828EEDB10BD00BFFEE77FB51C468C
:102AC0000198FFF795F805460298FFF773FF064651
:102AD0002846FFF7C5FE3046FFF7C2FEBDF80000EE
:102AE00000F04AF8A0602561A6617FBD07B584B0FB
:102AF000BDF8100003A9FFF7B3FF01A90598FFF780
:102B0000C5FF69460698FFF7ABFF002005E003A963
:102B1000095C114A1154411CC8B20428F7DB00209B
:102B200006E001A90A5C0C4B011D5A54411CC8B2B5
:102B30000828F6DB002007E01DF80020064B00F116
:102B40000C015A54411CC8B20428F5DB10210020A6
:102B5000FEF7E2F907B000BD8800002007B5BDF818
:102B60000000FFF775FD0198FDF76AFF029988B232
:102B7000FEF740F80EBD0000014642F2020081421D
:102B800002D106480068704742F20800814202D133
:102B900003480068F7E703480068F4E7780000207E
:102BA0007C000020800000202DE9F05F4FF0000A3B
:102BB00037E050460AEBD0714910AAEB4101A9B9A0
:102BC0003D490AFB1A10FDF7C7FC804600F0E2FF02
:102BD00006460022394BFDF7A1FB0446FDF7EEFC4B
:102BE0001FFA80FB5846FFF771F916E032490AFBDD
:102BF0001A10FDF7B1FC804600F0CCFF81F00041D7
:102C0000064600222D4BFDF789FB0446FDF7D6FC56
:102C10001FFA80FB5846FFF759F90AF101001FFA25
:102C200080FABAF5006FC4DB4FF4006A3DE050460D
:102C30000AEBD0714910AAEB4101C1B9AAF6FF71A4
:102C40000A461D4B01FB1230FDF786FC804600F062
:102C5000A1FF06460022194BFDF760FB0446FDF775
:102C6000ADFC1FFA80FB5846FFF730F919E0AAF6D1
:102C7000FF710A46104B01FB1230FDF76DFC8046D8
:102C800000F088FF81F00041064600220B4BFDF763
:102C900045FB0446FDF792FC1FFA80FB5846FFF700
:102CA00015F90AF101001FFA80FA40F6FF7082451B
:102CB000BDDBBDE8F09F000001F03F0000FEAF402B
:102CC0002DE9F05F4FF0000A37E050460AEBD07173
:102CD0004910AAEB4101A9B93D490AFB1A10FDF7B9
:102CE0003BFC804600F056FF06460022394BFDF7BC
:102CF00015FB0446FDF762FC1FFA80FB5846FFF700
:102D0000E5F816E032490AFB1A10FDF725FC80466B
:102D100000F040FF81F00041064600222E4BFDF7F7
:102D2000FDFA0446FDF74AFC1FFA80FB5846FFF700
:102D3000CDF80AF101001FFA80FABAF5006FC4DB82
:102D40004FF4006A3DE050460AEBD0714910AAEBFF
:102D50004101C1B9AAF6FF710A461D4B01FB1230B1
:102D6000FDF7FAFB804600F015FF06460022194BDE
:102D7000FDF7D4FA0446FDF721FC1FFA80FB584604
:102D8000FFF7A4F819E0AAF6FF710A46104B01FB01
:102D90001230FDF7E1FB804600F0FCFE81F00041BF
:102DA000064600220C4BFDF7B9FA0446FDF706FC77
:102DB0001FFA80FB5846FFF789F80AF101001FFA55
:102DC00080FA40F6FF708245BDDBBDE8F09F000051
:102DD00001F03F0000FEAF4000FC9F40490050EA78
:102DE000C12018BF04204A0D18BF40F0010040F276
:102DF000FF72B2EB515F08BF40F00200012808BF2C
:102E0000052070472DE9F0414F1E00EBC701044635
:102E1000D1E9000115461E4637F006020DD02A46BC
:102E20003346FDF722FB7F1E04EBC703D3E90023E3
:102E3000FDF774FA37F00602F1D1022F25D0042FE6
:102E400013D0062F18BFBDE8F0812A463346FDF7A0
:102E50000CFBD4E90A23FDF761FA2A463346FDF755
:102E600004FBD4E90823FDF759FA2A463346FDF757
:102E7000FCFAD4E90623FDF751FA2A463346FDF75A
:102E8000F4FAD4E90423FDF749FA2A463346FDF75C
:102E9000ECFAD4E90223FDF741FA2A463346FDF75E
:102EA000E4FAD4E90023BDE8F041FDF737BA0000A9
:102EB0000022134610460149FDF78DBC0000F03F8B
:102EC000FDF72CBA0022134610461146FDF783BCCD
:102ED00040F2013200204FF0E041FDF7EBBC000072
:102EE000024A00201107FDF7E5BC000001FDFFFFCD
:102EF00002E008C8121F08C1002AFAD170477047C3
:102F0000002001E001C1121F002AFBD17047000020
:102F1000014908607047000084000020A8B0FDF758
:102F200019FEFFF705FA9E48FDF7BEFE36E1FEF7F3
:102F300093FD04469B48007830B101283AD002281E
:102F400070D0032835D1E2E09748C078A04203D181
:102F50009348FEF765F92CE093488078A04203D1AE
:102F60008F48FEF772F924E08F484078A04203D1E1
:102F700001208C4908701CE08B488079A04205D163
:102F80008A4B874807C8FDF7D5FD12E08648C0790F
:102F9000A0420ED1342286491BA8FDF7E5F86C2229
:102FA000824910316846FDF7DFF880480FC8FEF708
:102FB00085FAEFE07C48C078A04209D178484068A3
:102FC00064284DD97648406864387549486047E0C0
:102FD00075488078A04205D17148406864307049D6
:102FE00048603DE070480078A04203D100206D4960
:102FF000087035E06C484078A04203D1022069494E
:1030000008702DE068480079A0420CD12822684958
:103010000C316846FDF7A8F865480EC86048FEF711
:1030200013FC1DE01DE060488079A04205D15F4B94
:103030005B4807C8FDF77EFD12E05B48C079A042FF
:103040000ED134225A491BA8FDF78EF86C2257493D
:1030500010316846FDF788F854480FC8FEF72EFA7D
:1030600098E05148C078A04209D14D488068642852
:103070004CD94B48806864384949886046E04A48E2
:103080008078A04205D14648806864304449886011
:103090003CE045480078A04203D101204149087036
:1030A00034E041484078A04203D103203D490870F4
:1030B0002CE03D480079A0420BD128223C490C313C
:1030C0006846FDF751F83A480EC83548FEF734FC1B
:1030D0001CE035488079A04205D1344B304807C800
:1030E000FDF728FD12E03048C079A0420ED134220D
:1030F0002F491BA8FDF738F86C222C49103168467F
:10310000FDF732F829480FC8FEF7D8F942E0264803
:10311000C078A04205D1002226492748FFF7B4FA1B
:1031200037E021488078A04205D101222149224878
:10313000FFF7AAFA2DE01C480078A04203D1022034
:103140001849087025E01848407AA04204D11A486E
:1031500007C8FFF775FB1CE013488079A04205D132
:10316000124B0F4807C8FDF7E5FC12E00E48C07986
:10317000A0420ED134220E491BA8FCF7F5FF6C22A9
:103180000A4910316846FCF7EFFF08480FC8FEF700
:1031900095F900BF00BFFDF7FBFC00BFC7E60000CC
:1031A000AC01002074000020F0020020EC0100209F
:1031B000B801002074020020680200202DE9F04DC3
:1031C0001D460C4698B0174621F0004123F00043FD
:1031D000002814BF4FF0010C4FF0000C0CEB440C16
:1031E000FE4A0CEB02064FEA620C66452BD33E000A
:1031F00018BF012606EB45061644F94A964222D32B
:10320000F84A53EA070C02D0944205D148B918B0E5
:1032100000201146BDE8F08D002808BF4FF0000CDB
:1032200001D04FF0010C0CEB440212F5001F0AD83C
:10323000002F14BF4FF0010C4FF0000C0CEB4502B7
:1032400012F5001F07D918B03A462B462146BDE8B3
:10325000F04DFFF735BE0022DFF88CA3002CB8BF7D
:10326000534526DADFF884C36345A8BF022220DA7B
:10327000DFF870C39C451CDCDFF874C30CEB235CE7
:10328000BCF1140F08DDCCF1340627FA06FC0CFA69
:1032900006F6BE420DD108E05FB9CCF1140623FA60
:1032A00006FC0CFA06F69E4203D10CF00102C2F1B4
:1032B000020251EA000C19D1002D17DA002C18BFB8
:1032C000022A01D0012A07D00220FFF721FE18B000
:1032D000BDE8F04DFFF7ECBD0220FFF719FEFFF748
:1032E000E7FD18B081F00041BDE8F08DB7F1000CAA
:1032F0006CD1534525D104F1804212F5801201BFF3
:1033000000280020B74918B008BFBDE8F08DB548C7
:10331000884207DC002DA1BF6046294618B0BDE8F1
:10332000F08D07E0281E05DA80F0004118B06046F5
:10333000BDE8F08DAF497944D1E9000118B0BDE88E
:10334000F08DDFF8A0C2634525D1002D1FDA19B139
:10335000514512D1D8B909E0002840F0EC82A24AC8
:10336000214618B062F31E01BDE8F08D0020214611
:1033700018B060F31E01BDE8F08D08DA18B02346DE
:10338000BDE8F04D024600206146FDF724BA18B0B2
:103390002146BDE8F08D514518DAB5F1804F0DD0CA
:1033A000A5F1005CBCF1FF5C10D1B4F1000C0DDBA9
:1033B00018B06146BDE8F04D00F0ECBB234618B0F4
:1033C0000246BDE8F04D1946FDF74FB8060024F05F
:1033D000004C3BD1D9B1514533D1002C06DD002D35
:1033E000A1BF0020514618B0BDE8F08D002C01DDD2
:1033F000002D1BDB002C13DA002D11DB012A4FF00E
:10340000000014BF78497C4918B0BDE8F08D022A4D
:1034100018BF002C0AD0012A08D1002C06DA0AE0D5
:10342000002CB8BF002D11DA012A04D0002018B0FA
:103430000146BDE8F08D18B000204FF00041BDE816
:10344000F08DA1F14050B0F17F601AD0012000EB67
:10345000E47050EA020421D0624C521E4FF0000B7F
:10346000104304BF4FF0000B644C654883427CDD81
:10347000644A654893421FDD884217DB002D25DB37
:1034800037E0002C00DA4AB1022A0CBF01204FF0CD
:10349000FF3018B0BDE8F04DFDF75EB80120FFF732
:1034A00037FD18B0BDE8F04DFFF70CBD4D4A8A421C
:1034B00002DC002D0ADC1CE0814202DA002D18DA61
:1034C00004E0484B994220DD002D12DD0220FFF779
:1034D0001FFDFFF7FDFC05460E46002253465846E9
:1034E0002146FCF7C2FF18B066F31E012846BDE86E
:1034F000F08D0220FFF70CFDFFF7F2FC0A46214693
:1035000018B062F31E01BDE8F08D0022304661461E
:10351000FCF7A5FF80460E466FF00102FDF7CAF9E1
:103520004FF05532394BFCF79DFF42463346FCF7CE
:103530009CFF0022364BFCF795FF824642463346FD
:10354000049110461946FCF790FF5246049BFCF785
:103550008CFF8A4600904FF0C0422E4B40463146C9
:10356000FCF783FF2C4A2B4B00E027E0CDE9060156
:1035700051460098FCF779FF82460191274A284B73
:1035800040463146FCF771FF5246019BFCF767FF4E
:1035900082460B4602460591DDE90601FCF7BEFEB8
:1035A000DDE90623002688463046FCF758FF5246E0
:1035B000059BFCF757FF024600F07EB90020B1F5ED
:1035C000801F07DA352230466146FDF773F906465B
:1035D0006FF0340000EB215024E00000FFFF1F00DB
:1035E000FFFF0F000000F03F0000F07F00004043AD
:1035F00001FCFFFF560B00000000F0FF0000F0BFD1
:103600000000E0410000F043FFFFEF3F5555D53F7C
:103610000000E03F4715F73FFE822B6544DF5DF871
:103620000BAE543EA0F2FF300190C1F3130040F006
:103630007F6141F040510291FE498842D8BF00208D
:1036400004DDFD498142C8BF012001DD0D9008E085
:1036500000200D900198401C01900298A0F5801068
:1036600002900299F54878440B910D9900EBC10046
:10367000D0E900230F9330460A920B99FCF7EFFE36
:10368000CDE90601DDE90A2130460F9BFCF746FE35
:1036900002460B460020EA49FDF79DF805910246D7
:1036A0000B460090DDE90601FCF7DFFE1490E548CB
:1036B0008A464FF0000878440299006812904FF053
:1036C000005040EA61010D980F9B01EB804000F52E
:1036D000002109910A9A1298FCF7C1FE32460B9B11
:1036E000FCF7C0FE42465346FCF7BFFE0646029179
:1036F00040465146099B129AFCF7B7FEDDE90623C6
:10370000FCF7B0FE3246029BFCF7A9FE059B009A2F
:10371000FCF7ABFE0091149A0490534610461946EC
:10372000FCF7A3FE06460246C7480B460291062157
:103730007844FFF767FBCDE90510029B324610463F
:103740001946FCF792FEDDE90532FCF78EFE059185
:103750000646534640461946149AFCF7DFFD009B87
:10376000049AFCF782FE3246059BFCF7D7FDCDE9B3
:1037700005104246534610461946FCF776FE0022D5
:10378000B24B02910A90FCF7C9FDDDE90532FCF766
:10379000C5FD0E464246AD4B4046FCF760FE029B1F
:1037A0000A9AFCF75CFEDDE90532FCF75BFE424657
:1037B00002910A90334610465146FCF756FECDE979
:1037C00006015346149A02990A98FCF74EFE8A465F
:1037D00002903346424600990498FCF746FE534651
:1037E000029AFCF79BFD82460B4602460591DDE9F5
:1037F0000601FCF793FDDDE9062300208846064616
:10380000FCF72DFE5246059BFCF72CFE82460991E3
:103810004FF060428E4B30464146FCF726FE049046
:1038200006918C4A8A4B50460999FCF71EFE824647
:103830000291894A894B30464146FCF716FE5246B2
:10384000029BFCF76BFD864B7B440D9A03EBC20396
:10385000D3E90023FCF762FD0E9007910198FCF775
:103860007BFE0591DDE9061382460E9A0498FCF76B
:1038700055FD7C4A7A440D9B02EBC303D3E9002338
:1038800000930292FCF74AFD5246059BFCF746FD69
:103890000026884652463046059BFCF7E0FD009B1B
:1038A000029AFCF7DCFD069B049AFCF7D8FD079B07
:1038B0000E9AFCF7D7FD024600200B4602903846D0
:1038C0002946FCF7D2FD824601912B46384619461F
:1038D000029AFCF7C4FD32464346FCF7C6FD524649
:1038E000019BFCF71BFD07468A46324643462946A4
:1038F0000298FCF7BAFD05460E463A465346FCF7D9
:103900000DFD594A8846914221DBA8EB020353EA98
:10391000000210D12A463346FCF7A1FDCDE904018F
:10392000524A534B38465146FCF7F8FCDDE9042374
:10393000FDF728F821D20220FFF7EAFAFFF7C8FACC
:103940000A46214618B062F31E01BDE8F08D494BCE
:1039500028F000429A4210D3474A08EB020353EA88
:1039600000027FF4C6AD2A463346FCF778FD3A469E
:103970005346FDF707F87FF6BCAD0022019228F010
:1039800000403E493E4A01EB2051824223DA481C66
:103990004FF4801121FA00F040443A4AC0F30A5132
:1039A0007A44394BA1F2FF31CB4020EA0303C0F344
:1039B000130040F48010C1F11401C8401268019056
:1039C000B8F1000FBCBF4042019028463146FCF7D9
:1039D00046FD05460E462A46334638465146FCF714
:1039E0009DFC4FF000084246284B40460591FCF7ED
:1039F0003CFDCDE90601264A264B40460599FCF7D9
:103A000034FD009102902A46334640460599FCF762
:103A100026FD3A465346FCF725FD1F4A1F4BFCF78F
:103A200024FD009B029AFCF779FC07468846024673
:103A30000B4635E08E9803007AB60B009E07000017
:103A40000000F03FD6070000040700000000084017
:103A500009C7EE3FFD033ADCF5015B14E02F3EBEE3
:103A6000DC050000A005000000009040FE822B65F0
:103A70004715973C00CC904000346F3F01FCFFFF9E
:103A80000000E03FEC040000FFFF0F00432EE63F84
:103A9000396CA80C615C20BEEF39FAFE422EE63F7D
:103AA000DDE90601FCF73AFCDDE9062305460E4692
:103AB000FCF7D5FC3A464346FCF7D4FC0F462A46B1
:103AC0003346009010461946FCF7CFFC824602466A
:103AD0002E4888460B4605217844FFF793F9524655
:103AE0004346FCF7C2FC2A463346FCF7BBFC804643
:103AF0008A463B4628463146009AFCF7B6FC3B46D0
:103B0000009AFCF70BFC0691009000224FF08043D6
:103B100040465146FCF7A3FC0F460C9042465346E4
:103B200028463146FCF7A1FC3B460C9AFCF753FEB5
:103B3000069B009AFCF793FC2A463346FCF78FFC61
:103B40000022134BFCF78EFC054601980E4601EB54
:103B500000510815002810DC28463146019AFCF770
:103B6000A9FEFFF73BF9042808BFFFF7B9F928467B
:103B70003146019AFCF79EFE05460B4618B02A46D0
:103B800058462146BDE8F04DFCF76FBC8C030000A1
:103B90000000F03F2DE9F04106460F46FCF7A1FE7C
:103BA000041E0D4618BF0120284320F00040C0F13C
:103BB0007F6000F1E040C00F0ED0301C18BF012024
:103BC000384320F00040C0F17F6000F1E040C00FBA
:103BD00004BF0120FFF79CF920462946BDE8F0818B
:103BE0000000000000000000002F0000000007009F
:103BF000070000147F147F1400242A7F2A12006219
:103C000064081323003649552250000005030000C4
:103C100000001C224100000041221C000014083E4C
:103C200008140008083E0808000000A06000000812
:103C30000808080800006060000000201008040266
:103C4000003E5149453E0000427F40000042615124
:103C50004946002141454B31001814127F100027BE
:103C600045454539003C4A49493000017109050381
:103C700000364949493600064949291E00003636B2
:103C80000000000056360000000814224100001415
:103C900014141414000041221408000201510906F2
:103CA00000324959513E007C1211127C007F494973
:103CB0004936003E41414122007F4141221C007FA4
:103CC00049494941007F09090901003E4149497AB2
:103CD000007F0808087F0000417F4100002040412C
:103CE0003F01007F08142241007F40404040007F98
:103CF000020C027F007F0408107F003E4141413EDC
:103D0000007F09090906003E4151215E007F091923
:103D100029460046494949310001017F0101003F20
:103D20004040403F001F2040201F003F4038403FA0
:103D30000063140814630007087008070061514904
:103D4000454300007F41410000552A552A55000097
:103D500041417F0000040201020400404040404015
:103D6000000001020400002054545478007F4844AD
:103D7000443800384444442000384444487F0038E4
:103D80005454541800087E0901020018A4A4A47C0D
:103D9000007F080404780000447D400000408084D7
:103DA0007D00007F102844000000417F4000007C1F
:103DB00004180478007C080404780038444444382B
:103DC00000FC242424180018242418FC007C080477
:103DD000040800485454542000043F444020003C50
:103DE0004040207C001C2040201C003C4030403CD7
:103DF000004428102844001CA0A0A07C0044645467
:103E00004C44141414141414000000000000F03F7B
:103E1000000000000000F83F00000000000000006B
:103E20000000004003B8E23F000000000000000076
:103E300006D0CF43EBFD4C3E033333333333E33F04
:103E4000FFAB6FDBB66DDB3F4D268F515555D53F30
:103E500001411DA96074D13F65DBC9934A86CD3FFE
:103E6000EF4E454A287ECA3F3E5555555555C53FEC
:103E700093BDBE166CC166BF2CDE25AF6A56113FDE
:103E8000F16BD2C541BDBBBED0A4BE726937663EE0
:103E9000000000000000000073696E6520202020F3
:103EA0000000000073717561726520200000000041
:103EB000747269616E676C6500000000DC3E00088A
:103EC0000000002088000000F02E0008643F000879
:103ED0008800002078060000002F000800A24A0495
:103EE00000000000000000000102030406070809AA
:103EF0000000000001020304010203040607080990
:103F00000204060800000000000000000014014048
:103F1000001401400014014000140140001401404D
:103F2000002001400020014000200140004000200E
:103F300000100008008004000800100031323341F6
:103F400034353642373839432A302344450000009F
:103F500000000000B03E0008983E0008A43E0008A3
:043F6000000000005D
:0400000508000131BD
:00000001FF
